{
  "_format": "hh-sol-artifact-1",
  "contractName": "BulkBuyAsset",
  "sourceName": "contracts/utils/BulkBuyAsset.sol",
  "abi": [
    {
      "anonymous": false,
      "inputs": [
        {
          "indexed": true,
          "internalType": "address",
          "name": "previousOwner",
          "type": "address"
        },
        {
          "indexed": true,
          "internalType": "address",
          "name": "newOwner",
          "type": "address"
        }
      ],
      "name": "OwnershipTransferred",
      "type": "event"
    },
    {
      "inputs": [
        {
          "components": [
            {
              "internalType": "address",
              "name": "consumer",
              "type": "address"
            },
            {
              "internalType": "uint256",
              "name": "serviceIndex",
              "type": "uint256"
            },
            {
              "components": [
                {
                  "internalType": "address",
                  "name": "providerFeeAddress",
                  "type": "address"
                },
                {
                  "internalType": "address",
                  "name": "providerFeeToken",
                  "type": "address"
                },
                {
                  "internalType": "uint256",
                  "name": "providerFeeAmount",
                  "type": "uint256"
                },
                {
                  "internalType": "uint8",
                  "name": "v",
                  "type": "uint8"
                },
                {
                  "internalType": "bytes32",
                  "name": "r",
                  "type": "bytes32"
                },
                {
                  "internalType": "bytes32",
                  "name": "s",
                  "type": "bytes32"
                },
                {
                  "internalType": "uint256",
                  "name": "validUntil",
                  "type": "uint256"
                },
                {
                  "internalType": "bytes",
                  "name": "providerData",
                  "type": "bytes"
                }
              ],
              "internalType": "struct BulkBuyAsset.providerFee[]",
              "name": "_providerFees",
              "type": "tuple[]"
            },
            {
              "components": [
                {
                  "internalType": "address",
                  "name": "consumeMarketFeeAddress",
                  "type": "address"
                },
                {
                  "internalType": "address",
                  "name": "consumeMarketFeeToken",
                  "type": "address"
                },
                {
                  "internalType": "uint256",
                  "name": "consumeMarketFeeAmount",
                  "type": "uint256"
                }
              ],
              "internalType": "struct BulkBuyAsset.consumeMarketFee[]",
              "name": "_consumeMarketFees",
              "type": "tuple[]"
            }
          ],
          "internalType": "struct BulkBuyAsset.BulkOrderParams",
          "name": "_bulkOrderParams",
          "type": "tuple"
        },
        {
          "components": [
            {
              "internalType": "address[]",
              "name": "exchangeContracts",
              "type": "address[]"
            },
            {
              "internalType": "bytes32[]",
              "name": "exchangeIds",
              "type": "bytes32[]"
            },
            {
              "internalType": "uint256[]",
              "name": "maxBaseTokenAmounts",
              "type": "uint256[]"
            },
            {
              "internalType": "uint256[]",
              "name": "swapMarketFees",
              "type": "uint256[]"
            },
            {
              "internalType": "address[]",
              "name": "marketFeeAddresses",
              "type": "address[]"
            }
          ],
          "internalType": "struct BulkBuyAsset.BulkFreParams",
          "name": "_bulkFreParams",
          "type": "tuple"
        },
        {
          "internalType": "address[]",
          "name": "_erc20TemplateEnterpriseAddresses",
          "type": "address[]"
        }
      ],
      "name": "bulkBuyFromFreAndOrder",
      "outputs": [],
      "stateMutability": "nonpayable",
      "type": "function"
    },
    {
      "inputs": [],
      "name": "owner",
      "outputs": [
        {
          "internalType": "address",
          "name": "",
          "type": "address"
        }
      ],
      "stateMutability": "view",
      "type": "function"
    },
    {
      "inputs": [],
      "name": "renounceOwnership",
      "outputs": [],
      "stateMutability": "nonpayable",
      "type": "function"
    },
    {
      "inputs": [
        {
          "internalType": "address",
          "name": "newOwner",
          "type": "address"
        }
      ],
      "name": "transferOwnership",
      "outputs": [],
      "stateMutability": "nonpayable",
      "type": "function"
    }
  ],
  "bytecode": "0x608060405234801561001057600080fd5b50600160005561001f33610024565b610076565b600180546001600160a01b038381166001600160a01b0319831681179093556040519116919082907f8be0079c531659141344cd1fd0a4f28419497f9722a3daafe3b4186f6b6457e090600090a35050565b611310806100856000396000f3fe608060405234801561001057600080fd5b506004361061004c5760003560e01c80634c7fa7ee14610051578063715018a6146100665780638da5cb5b1461006e578063f2fde38b1461008d575b600080fd5b61006461005f366004610d9d565b6100a0565b005b610064610887565b600154604080516001600160a01b039092168252519081900360200190f35b61006461009b366004610e7b565b61089b565b6100a8610914565b6100b56040850185610e98565b90506100c18480610e98565b90501480156100da5750806100d68480610e98565b9050145b80156100fe57506100ee6060850185610ee9565b90506100fa8480610e98565b9050145b61014f5760405162461bcd60e51b815260206004820152601960248201527f4d69736d6174636820696e206172726179206c656e677468730000000000000060448201526064015b60405180910390fd5b600561015b8480610e98565b905011156101ab5760405162461bcd60e51b815260206004820152601c60248201527f4d6178696d756d2062756c6b20627579206973203520617373657473000000006044820152606401610146565b60005b6101b88480610e98565b9050811015610876576040805160808101909152600090806101dd6020890189610e7b565b6001600160a01b03168152602001876020013581526020016040518061010001604052808980604001906102119190610e98565b8781811061022157610221610f32565b90506020028101906102339190610f48565b610241906020810190610e7b565b6001600160a01b0316815260200161025c60408b018b610e98565b8781811061026c5761026c610f32565b905060200281019061027e9190610f48565b61028f906040810190602001610e7b565b6001600160a01b031681526020016102aa60408b018b610e98565b878181106102ba576102ba610f32565b90506020028101906102cc9190610f48565b6040013581526020018980604001906102e59190610e98565b878181106102f5576102f5610f32565b90506020028101906103079190610f48565b610318906080810190606001610f68565b60ff16815260200161032d60408b018b610e98565b8781811061033d5761033d610f32565b905060200281019061034f9190610f48565b60800135815260200161036560408b018b610e98565b8781811061037557610375610f32565b90506020028101906103879190610f48565b60a00135815260200161039d60408b018b610e98565b878181106103ad576103ad610f32565b90506020028101906103bf9190610f48565b60c0013581526020016103d560408b018b610e98565b878181106103e5576103e5610f32565b90506020028101906103f79190610f48565b6104059060e0810190610f8b565b8080601f0160208091040260200160405190810160405280939291908181526020018383808284376000920191909152505050915250815260408051606080820190925260209092019190819061045e908b018b610ee9565b8781811061046e5761046e610f32565b6104849260206060909202019081019150610e7b565b6001600160a01b0316815260200161049f60608b018b610ee9565b878181106104af576104af610f32565b90506060020160200160208101906104c79190610e7b565b6001600160a01b031681526020016104e260608b018b610ee9565b878181106104f2576104f2610f32565b90506060020160400135815250815250905060006040518060a001604052808780600001906105219190610e98565b8681811061053157610531610f32565b90506020020160208101906105469190610e7b565b6001600160a01b031681526020018780602001906105649190610e98565b8681811061057457610574610f32565b9050602002013581526020018780604001906105909190610e98565b868181106105a0576105a0610f32565b9050602002013581526020018780606001906105bc9190610e98565b868181106105cc576105cc610f32565b9050602002013581526020018780608001906105e89190610e98565b868181106105f8576105f8610f32565b905060200201602081019061060d9190610e7b565b6001600160a01b0390811690915281516020830151604051634c87087d60e01b8152600481019190915292935091600091829190841690634c87087d9060240161018060405180830381865afa15801561066b573d6000803e3d6000fd5b505050506040513d601f19601f8201168201806040525081019061068f9190610fe7565b50505060208d015160608e0151604051636e8de4b560e11b81526004810192909252670de0b6b3a764000060248301526044820152979a5094985060009750506001600160a01b038a169563dd1bc96a955060640193506106ef92505050565b608060405180830381865afa15801561070c573d6000803e3d6000fd5b505050506040513d601f19601f82011682018060405250810190610730919061109b565b505050905084604001518111156107805760405162461bcd60e51b8152602060048201526014602482015273546f6f206d616e79206261736520746f6b656e7360601b6044820152606401610146565b6107956001600160a01b03831633308461096e565b6107d08989898181106107aa576107aa610f32565b90506020020160208101906107bf9190610e7b565b6001600160a01b03841690836109d9565b60008989898181106107e4576107e4610f32565b90506020020160208101906107f99190610e7b565b60405163a8c09b0b60e01b81529091506001600160a01b0382169063a8c09b0b9061082a908a908a90600401611129565b600060405180830381600087803b15801561084457600080fd5b505af1158015610858573d6000803e3d6000fd5b5050505050505050505050808061086e9061124e565b9150506101ae565b506108816001600055565b50505050565b61088f610a86565b6108996000610ae0565b565b6108a3610a86565b6001600160a01b0381166109085760405162461bcd60e51b815260206004820152602660248201527f4f776e61626c653a206e6577206f776e657220697320746865207a65726f206160448201526564647265737360d01b6064820152608401610146565b61091181610ae0565b50565b600260005414156109675760405162461bcd60e51b815260206004820152601f60248201527f5265656e7472616e637947756172643a207265656e7472616e742063616c6c006044820152606401610146565b6002600055565b6040516001600160a01b03808516602483015283166044820152606481018290526108819085906323b872dd60e01b906084015b60408051601f198184030181529190526020810180516001600160e01b03166001600160e01b031990931692909217909152610b32565b604051636eb1769f60e11b81523060048201526001600160a01b0383811660248301526000919085169063dd62ed3e90604401602060405180830381865afa158015610a29573d6000803e3d6000fd5b505050506040513d601f19601f82011682018060405250810190610a4d9190611269565b90506108818463095ea7b360e01b85610a668686611282565b6040516001600160a01b03909216602483015260448201526064016109a2565b6001546001600160a01b031633146108995760405162461bcd60e51b815260206004820181905260248201527f4f776e61626c653a2063616c6c6572206973206e6f7420746865206f776e65726044820152606401610146565b600180546001600160a01b038381166001600160a01b0319831681179093556040519116919082907f8be0079c531659141344cd1fd0a4f28419497f9722a3daafe3b4186f6b6457e090600090a35050565b6000610b87826040518060400160405280602081526020017f5361666545524332303a206c6f772d6c6576656c2063616c6c206661696c6564815250856001600160a01b0316610c0c9092919063ffffffff16565b9050805160001480610ba8575080806020019051810190610ba8919061129a565b610c075760405162461bcd60e51b815260206004820152602a60248201527f5361666545524332303a204552433230206f7065726174696f6e20646964206e6044820152691bdd081cdd58d8d9595960b21b6064820152608401610146565b505050565b6060610c1b8484600085610c25565b90505b9392505050565b606082471015610c865760405162461bcd60e51b815260206004820152602660248201527f416464726573733a20696e73756666696369656e742062616c616e636520666f6044820152651c8818d85b1b60d21b6064820152608401610146565b600080866001600160a01b03168587604051610ca291906112b5565b60006040518083038185875af1925050503d8060008114610cdf576040519150601f19603f3d011682016040523d82523d6000602084013e610ce4565b606091505b5091509150610cf587838387610d02565b925050505b949350505050565b60608315610d6e578251610d67576001600160a01b0385163b610d675760405162461bcd60e51b815260206004820152601d60248201527f416464726573733a2063616c6c20746f206e6f6e2d636f6e74726163740000006044820152606401610146565b5081610cfa565b610cfa8383815115610d835781518083602001fd5b8060405162461bcd60e51b815260040161014691906112c7565b60008060008060608587031215610db357600080fd5b843567ffffffffffffffff80821115610dcb57600080fd5b9086019060808289031215610ddf57600080fd5b90945060208601359080821115610df557600080fd5b9086019060a08289031215610e0957600080fd5b90935060408601359080821115610e1f57600080fd5b818701915087601f830112610e3357600080fd5b813581811115610e4257600080fd5b8860208260051b8501011115610e5757600080fd5b95989497505060200194505050565b6001600160a01b038116811461091157600080fd5b600060208284031215610e8d57600080fd5b8135610c1e81610e66565b6000808335601e19843603018112610eaf57600080fd5b83018035915067ffffffffffffffff821115610eca57600080fd5b6020019150600581901b3603821315610ee257600080fd5b9250929050565b6000808335601e19843603018112610f0057600080fd5b83018035915067ffffffffffffffff821115610f1b57600080fd5b6020019150606081023603821315610ee257600080fd5b634e487b7160e01b600052603260045260246000fd5b6000823560fe19833603018112610f5e57600080fd5b9190910192915050565b600060208284031215610f7a57600080fd5b813560ff81168114610c1e57600080fd5b6000808335601e19843603018112610fa257600080fd5b83018035915067ffffffffffffffff821115610fbd57600080fd5b602001915036819003821315610ee257600080fd5b80518015158114610fe257600080fd5b919050565b6000806000806000806000806000806000806101808d8f03121561100a57600080fd5b8c5161101581610e66565b60208e0151909c5061102681610e66565b60408e015160608f0151919c509a5061103e81610e66565b60808e015160a08f0151919a509850965061105b60c08e01610fd2565b955060e08d015194506101008d015193506101208d015192506101408d015191506110896101608e01610fd2565b90509295989b509295989b509295989b565b600080600080608085870312156110b157600080fd5b505082516020840151604085015160609095015191969095509092509050565b60005b838110156110ec5781810151838201526020016110d4565b838111156108815750506000910152565b600081518084526111158160208601602086016110d1565b601f01601f19169290920160200192915050565b60c08152600060018060a01b038085511660c0840152602085015160e0840152604085015161010060c08186015282825116610180860152826020830151166101a086015260408201516101c0860152606082015192506111906101e086018460ff169052565b608082015161020086015260a082015161022086015260c082015161024086015260e082015192508061026086015250506111cf6102808401826110fd565b60608681015180516001600160a01b0390811661012088015260208083015182166101408901526040928301516101608901528851821681890152880151828801529087015186830152908601516080808701919091528601511660a08501529150610c1e9050565b634e487b7160e01b600052601160045260246000fd5b600060001982141561126257611262611238565b5060010190565b60006020828403121561127b57600080fd5b5051919050565b6000821982111561129557611295611238565b500190565b6000602082840312156112ac57600080fd5b610c1e82610fd2565b60008251610f5e8184602087016110d1565b602081526000610c1e60208301846110fd56fea26469706673582212200db4eb25489b632e15af30083a5179d9f1b6251416c2704a7a29e9e4c3c5b50964736f6c634300080c0033",
  "linkReferences": {},
  "deployedLinkReferences": {}
}